:1000000055EF01F0FFFFFFFF0000000012000F0E90
:100010000B6EFF0E0A6E0B2E01D003D00A2EFED7F8
:10002000FAD73E0E0A6E0A2EFED700001200210EED
:100030000A6E0A2EFED7120015C0E9FF16C0EAFFAD
:1000400017C0E1FF18C0E2FFEF6A485200E048BE67
:10005000EF8E48BCEF8C48BAEF8A48B8EF8848B6B4
:10006000EF8648B4EF8448B2EF8248B0EF80195071
:10007000010A03E1E7943EEF00F0E784E78204EC35
:1000800000F0E7921950010A03E107EC00F002D0FA
:1000900017EC00F012000001086A096A100E0C6EDD
:1000A0000134083609360450085E0550D8A0053CD6
:1000B000095ED8B063EF00F0045008260550D8B0B0
:1000C000053C0926D890003601360C2E50EF00F082
:1000D00012000FD0800E436E19D0C00E436E16D0A2
:1000E000940E436E13D0D40E436E10D0800E436E28
:1000F0000DD04350010AEEE04350020AEEE04350B7
:10010000030AEEE04350040AEEE0F0D74404006E28
:100110004350002600C043F0010E196E00C048F0A5
:100120001CEC00F0196A476A47504524E96E000E3E
:100130004620EA6EEECF00F000520CE04750452416
:10014000E96E000E4620EA6EEECF48F01CEC00F09F
:10015000472AEAD7010E196E120045C0E9FF46C0D2
:10016000EAFF200EEE6E200EEE6E200EEE6E200EDA
:10017000EE6E200EEE6EEF6A010E476E000E006E00
:100180004450005C02E143500908D8A0472A000E01
:10019000006E4450005C02E143506308D8A0472A37
:1001A0004450030802E14350E708D8A0472A4450CE
:1001B000270802E143500F08D8A0472AED6A4750AC
:1001C000000824E20A0E046E000E056E43C000F023
:1001D00044C001F04BEC00F008C000F009C001F091
:1001E00000C0EFFFEF50435C006E000E4458016EFC
:1001F0000A0E046E000E056E4BEC00F000C043F0DA
:1002000001C044F0300EED264706D9D7120007ECA6
:1002100000F007EC00F007EC00F045C015F046C018
:1002200016F043C017F044C018F043C0E9FF44C0C3
:10023000EAFFEF9045C0E1FF46C0E2FFE66A110E1B
:10024000E124006E00C0E1FFE76A120E005CE16E7F
:10025000120EE926EF92EF94EF90120EE95EEF9402
:10026000EF92EF90300E486E1CEC00F0300E486EAE
:100270001CEC00F0300E486E1CEC00F0380E486E9E
:100280001CEC00F0080E486E1CEC00F0010E486EED
:100290001CEC00F0060E486E1CEC00F00C0E486ED4
:1002A0001CEC00F0010E196E1200560E1A6E610E53
:1002B0001B6E730E1C6E630E1D6E6F0E1E6E580E3F
:1002C0001F6E460E206E6C0E216E610E226E6D0E3C
:1002D000236E650E246E6E0E256E670E266E6F0EF3
:1002E000276E286A300E296E2A6A300E2B6E2C6A11
:1002F0002D6A2E6A956A966A060EC16E9380938265
:10030000840E436E0F0E446E830E456E0F0E466EC6
:1003100007EC01F0010E486E1CEC00F00C0E486E6C
:100320001CEC00F0010E436E010E446E1A0E456E79
:10033000000E466E69EC00F0020E436E030E446E32
:10034000290E456E000E466E69EC00F0020E436EFB
:100350000B0E446E2B0E456E000E466E69EC00F0DF
:10036000010E8114016E0150000A36E12D2A2DC0C4
:1003700043F0000E446E2F0E456E000E466EADEC3F
:1003800000F0030E0C6EFF0E0B6EFF0E0A6E0C2EAD
:1003900001D007D00B2E01D003D00A2EFED7FAD7FA
:1003A000F6D70B0E0B6EFF0E0A6E0B2E01D003D08C
:1003B0000A2EFED7FAD7180E0A6E0A2EFED70000B4
:1003C0000000020E436E030E446E2F0E456E000EAB
:1003D000466E69EC00F03BD0016A81B2012A0150FF
:1003E000000A35E12E2A2EC043F0000E446E390E6D
:1003F000456E000E466EADEC00F0030E0C6EFF0E67
:100400000B6EFF0E0A6E0C2E01D007D00B2E01D002
:1004100003D00A2EFED7FAD7F6D70B0E0B6EFF0EBF
:100420000A6E0B2E01D003D00A2EFED7FAD7180E73
:100430000A6E0A2EFED700000000020E436E0B0E5D
:10044000446E390E456E000E466E69EC00F088D79A
:10045000FFD7FFFFFFFFFFFFFFFFFFFFFFFFFFFFD4
:020000040030CA
:0E000000FFFAF6FEFFFEFBFFFFFFFFFFFFFF14
:00000001FF
