:1000000024EF02F0FFFFFFFF0000000012000F0EC0
:100010000B6EFF0E0A6E0B2E01D003D00A2EFED7F8
:10002000FAD73E0E0A6E0A2EFED700001200210EED
:100030000A6E0A2EFED7120015C0E9FF16C0EAFFAD
:1000400017C0E1FF18C0E2FFEF6A545200E054BE4F
:10005000EF8E54BCEF8C54BAEF8A54B8EF8854B684
:10006000EF8654B4EF8454B2EF8254B0EF8019504D
:10007000010A03E1E7943EEF00F0E784E78204EC35
:1000800000F0E7921950010A03E107EC00F002D0FA
:1000900017EC00F0120007EC00F007EC00F007ECA2
:1000A00000F051C015F052C016F04FC017F050C00C
:1000B00018F04FC0E9FF50C0EAFFEF9051C0E1FFD8
:1000C00052C0E2FFE66A110EE124006E00C0E1FFBB
:1000D000E76A120E005CE16E120EE926EF92EF94D1
:1000E000EF90120EE95EEF94EF92EF90300E546EA7
:1000F0001CEC00F0300E546E1CEC00F0300E546E10
:100100001CEC00F0380E546E1CEC00F0080E546E1F
:100110001CEC00F0010E546E1CEC00F0060E546E48
:100120001CEC00F00C0E546E1CEC00F0010E196E6D
:1001300012000FD0800E4F6E19D0C00E4F6E16D029
:10014000940E4F6E13D0D40E4F6E10D0800E4F6EA3
:100150000DD04F50010AEEE04F50020AEEE04F5032
:10016000030AEEE04F50040AEEE0F0D75004006EB0
:100170004F50002600C04FF0010E196E00C054F021
:100180001CEC00F0196A536A53505124E96E000EBA
:100190005220EA6EEECF00F000520CE05350512492
:1001A000E96E000E5220EA6EEECF54F01CEC00F027
:1001B000532AEAD7010E196E1200196A516A51507A
:1001C0004F24E96E000E5020EA6EEECF00F0005290
:1001D0000CE051504F24E96E000E5020EA6EEECF35
:1001E00054F01CEC00F0512AEAD7010E196E1200EF
:1001F00000010134083609360450085E0550D8A0C5
:10020000053C095E003601360F0E0C6E01340836CF
:100210000936045000A014EF01F0085E0550D8A084
:10022000053C095E19EF01F008260550D8B0053CE1
:100230000926003601360C2E06EF01F000B027EF3C
:1002400001F0045008260550D8B0053C09260000EE
:100250001200840E4F6E0F0E506E830E516E0F0EF5
:10026000526E4BEC00F0010E546E1CEC00F00C0EC4
:10027000546E1CEC00F0020E0C6EFF0E0B6EFF0EA7
:100280000A6E0C2E01D007D00B2E01D003D00A2EFF
:10029000FED7FAD7F6D7060E0B6EFF0E0A6E0B2EA0
:1002A00001D003D00A2EFED7FAD70A0E0A6E0A2E04
:1002B000FED700001200530E476E650E486E670EA3
:1002C000496E720E4A6E650E4B6E640E4C6E6F0E6A
:1002D0004D6E4E6A956A010E546E1CEC00F0010ED4
:1002E0004F6E010E506E470E516E000E526E99EC1D
:1002F00000F0020E4F6E506A200E516E000E526ECC
:1003000099EC00F045C04FF046C050F0DDEC00F035
:10031000FF0E956E1200000100500402F4CF09F0A8
:10032000F3CF08F001500502F4CF0BF0F3CF0AF041
:1003300000500502F3500926F4500A22E86A0B2205
:1003400001500402F3500926F4500A22E86A0B22F5
:1003500005AEAFEF01F000500A5C01500B5801AE42
:10036000B6EF01F004500A5C05500B5808C000F0CD
:1003700009C001F00AC002F00BC003F01200000136
:100380000D6A096A086A01500010D8B4000C0150C7
:1003900005180A6E0ABE0D1E0B6A05AED5EF01F0F8
:1003A000041E051E042AD8B4052A01AEDDEF01F0B3
:1003B000001E011E002AD8B4012A015005100A6E41
:1003C0000ABEF5EF01F0F8EC00F00BB00CEF02F014
:1003D0000DAE000C001E011E002AD8B4012A081E12
:1003E000091E082AD8B4092A000C05AE07EF02F04E
:1003F00001BE03EF02F00150096E0050086E016A61
:10040000006AE8EF01F0016A006A002A000C011E90
:10041000001E0B2AE3EF01F0082AD8B4092A045081
:10042000085CD8A4E8EF01F00550095CD8A4E8EF17
:1004300001F0096A086A002AD8B4012A01AEE8EF7F
:1004400001F00000FF0C1200200E1A6E1B6A3C0E19
:100450001C6E2D0E1D6E2D0E1E6E1F6A300E206E30
:10046000216A2D0E226E2D0E236E3E0E246E256AFD
:10047000460E266E650E276E630E286E680E296E78
:10048000610E2A6E640E2B6E6F0E2C6E2D6A410E5D
:100490002E6E620E2F6E650E306E720E316E740E01
:1004A000326E6F0E336E346A450E356E720E366ED6
:1004B000720E376E610E386E640E396E6F0E3A6EC4
:1004C0003B6A390E3D6E1B0E3E6E3F6A406AE80E77
:1004D000416E030E426E436A446A060EC16EFF0E01
:1004E000956E926A29EC01F01A0E456E000E466E6A
:1004F0005BEC01F0FF0E816EFF0E836EFF0E956EBA
:10050000936A819083CF3CF0010E3C14026E02503E
:10051000000A07E11C0E456E000E466E5BEC01F012
:1005200068D0026A3CB2022A0250000A1FE141C0B0
:1005300000F042C001F0070E046E000E056E8BEC59
:1005400001F000503F2601504022434A442A0A0E3F
:10055000046E000E056E41C000F042C001F0BFEC19
:1005600001F000C041F001C042F043D00001026A36
:100570003CB4022A0250000A22E1020E046E41C07D
:1005800000F042C001F0045005E000360090013652
:10059000FF0FFAD700503F2601504022434A442A19
:1005A0000A0E046E000E056E41C000F042C001F05C
:1005B000BFEC01F000C041F001C042F01AD0026A65
:1005C0003CB6022A0250000A14E141503F26425034
:1005D0004022434A442A0A0E046E000E056E41C0B2
:1005E00000F042C001F0BFEC01F000C041F001C0DA
:1005F00042F000018180819283CF3CF0010E3C14D7
:10060000026E0250000A07E1200E456E000E466E93
:100610005BEC01F075D0026A3CB2022A0250000A7B
:1006200022E1030E046E41C000F042C001F004500C
:1006300005E0003600900136FF0FFAD700503F2644
:1006400001504022434A442A0A0E046E000E056EF1
:1006500041C000F042C001F0BFEC01F000C041F029
:1006600001C042F04DD00001026A3CB4022A02509F
:10067000000A1FE141C000F042C001F0050E046E07
:10068000000E056E8BEC01F000503F260150402219
:10069000434A442A0A0E046E000E056E41C000F063
:1006A00042C001F0BFEC01F000C041F001C042F0D7
:1006B00027D0026A3CB6022A0250000A21E1010E4C
:1006C000046E41C000F042C001F0045005E0003665
:1006D00000900136FF0FFAD700503F26015040220C
:1006E000434A442A0A0E046E000E056E41C000F013
:1006F00042C001F0BFEC01F000C041F001C042F087
:1007000000018182819483CF3CF0010E3C14026E83
:100710000250000A07E1220E456E000E466E5BECA9
:1007200001F06FD0026A3CB2022A0250000A1FE1B7
:1007300041C000F042C001F0090E046E000E056ECB
:100740008BEC01F000503F2601504022434A442ADE
:100750000A0E046E000E056E41C000F042C001F0AA
:10076000BFEC01F000C041F001C042F04AD00001EE
:10077000026A3CB4022A0250000A1FE141C000F0A4
:1007800042C001F0060E046E000E056E8BEC01F007
:1007900000503F2601504022434A442A0A0E046E6C
:1007A000000E056E41C000F042C001F0BFEC01F048
:1007B00000C041F001C042F024D0026A3CB6022AD7
:1007C0000250000A1EE141C000F042C001F0030ED9
:1007D000046E000E056E8BEC01F000503F260150B8
:1007E0004022434A442A0A0E046E000E056E41C0A0
:1007F00000F042C001F0BFEC01F000C041F001C0C8
:1008000042F000018184800E4418006E800E005C6E
:1008100002E1040E435C07E2260E456E000E466EB2
:100820005BEC01F041D0000E441802E1040E4318C5
:100830003BE140503E1802E13D503F1807E12E0ECB
:10084000456E000E466E5BEC01F02ED0350E456E07
:10085000000E466E5BEC01F00B0E0C6EFF0E0B6E85
:10086000FF0E0A6E0C2E01D007D00B2E01D003D044
:100870000A2EFED7FAD7F6D7330E0B6EFF0E0A6E8E
:100880000B2E01D003D00A2EFED7FAD7880E0A6E9F
:100890000A2EFED700000000436A446A3F6A406A9D
:1008A000E80E416E030E426E020E0C6EFF0E0B6ED2
:1008B000FF0E0A6E0C2E01D007D00B2E01D003D0F4
:1008C0000A2EFED7FAD7F6D7060E0B6EFF0E0A6E6B
:1008D0000B2E01D003D00A2EFED7FAD70A0E0A6ECD
:1008E0000A2EFED700000DD6FFD7FFFFFFFFFFFF48
:020000040030CA
:0E000000FFFAF6FEFFFEFBFFFFFFFFFFFFFF14
:00000001FF
