:1000000004EF00F0FFFFFFFF956A836AFF0E836E27
:100010000B0E0C6EFF0E0B6EFF0E0A6E0C2E01D037
:1000200007D00B2E01D003D00A2EFED7FAD7F6D771
:10003000330E0B6EFF0E0A6E0B2E01D003D00A2E6C
:10004000FED7FAD7880E0A6E0A2EFED700000000EF
:10005000836A0B0E0C6EFF0E0B6EFF0E0A6E0C2EDB
:1000600001D007D00B2E01D003D00A2EFED7FAD72D
:10007000F6D7330E0B6EFF0E0A6E0B2E01D003D097
:100080000A2EFED7FAD7880E0A6E0A2EFED7000077
:100090000000BCD7FFD7FFFFFFFFFFFFFFFFFFFF01
:020000040030CA
:0E000000FFFAF6FEFFFEFBFFFFFFFFFFFFFF14
:00000001FF
