:1000000042EF00F0FFFFFFFF1ED03F0E006E120018
:10001000060E006E12005B0E006E12004F0E006E98
:100020001200660E006E12006D0E006E12007D0E44
:10003000006E1200070E006E12007F0E006E12009E
:100040006F0E006E12001850000ADFE01850010A0F
:10005000DFE01850020ADFE01850030ADFE0185012
:10006000040ADFE01850050ADFE01850060ADFE056
:100070001850070ADFE01850080ADFE01850090A94
:10008000DFE01200C70ED56ED66A956A936A926A4F
:10009000836A816A806A156AF26A8084D65015186C
:1000A0001CE1D6CF81FF15C018F004EC00F000C0B1
:1000B00083FF166A176AFF0E175C02E1000E165CDA
:1000C00003E2164A172AF7D71550010F016E01C037
:1000D00015F001500708D8A0156AE0D7FFD7FFFF39
:020000040030CA
:0E000000FFFAF6FEFFFEFBFFFFFFFFFFFFFF14
:00000001FF
