:100000000BEF05F0FFFFFFFF0000000012000F0ED6
:100010000B6EFF0E0A6E0B2E01D003D00A2EFED7F8
:10002000FAD73E0E0A6E0A2EFED700001200210EED
:100030000A6E0A2EFED7120015C0E9FF16C0EAFFAD
:1000400017C0E1FF18C0E2FF1A501910006E1B50D4
:100050000012001E0050E7161D501C10006E1E50AE
:1000600000121F500012001E0050EF167AAE02D090
:100070001C50EF127AAC02D01D50EF127AAA02D0B7
:100080001E50EF127AA802D01F50EF12205205E046
:10009000191C006E0050E71602D01950E7121B50D1
:1000A000E71204EC00F01B1C006E0050E7161A501B
:1000B0001910006E1B500012001E0050E7161D5054
:1000C0001C10006E1E5000121F500012001E005027
:1000D000EF167AA602D01C50EF127AA402D01D505F
:1000E000EF127AA202D01E50EF127AA002D01F5057
:1000F000EF12205205E0191C006E0050E71602D0E6
:100100001950E7121B50E71204EC00F01B1C006EA4
:100110000050E716205203E007EC00F002D017EC85
:1001200000F01200016AC7B4012A0150000A09E177
:100130001F0EC514016E0150000A03E1010E006E8E
:100140001200006A1200206A79C07AF01CEC00F0FC
:10015000010E206E12000001086A096A100E0C6E72
:100160000134083609360450085E0550D8A0053C15
:10017000095ED8B0C3EF00F0045008260550D8B08F
:10018000053C0926D890003601360C2EB0EF00F061
:100190001200746A756A7550120802E174508E0874
:1001A00007E392EC00F0005203E1744A752AF3D79A
:1001B000120E755C02E18F0E745C03E37B0E006E21
:1001C0001200C580C5A002D00000FCD7006A120052
:1001D00074C0C9FF9E96C7B4FED79EA6FED7016A1B
:1001E000C5BC012A0150000A02E1006A1200C58460
:1001F000020E006E1200C5841200C582C5A202D094
:100200000000FCD71200C5869E969EA6FED7C9CFD9
:1002100075F0C59A7450000AD8B4C58AC5889E96F0
:100220009EA6FED775C000F012000FD0800E746E2F
:1002300019D0C00E746E16D0940E746E13D0D40EF6
:10024000746E10D0800E746E0DD07450010AEEE002
:100250007450020AEEE07450030AEEE07450040A8F
:10026000EEE0F0D77504006E7450002600C074F004
:1002700000C07AF01CEC00F0206A786A785076248E
:10028000E96E000E7720EA6EEECF00F000520CE02F
:1002900078507624E96E000E7720EA6EEECF79F082
:1002A000A3EC00F0782AEAD7010E206E120076C087
:1002B000E9FF77C0EAFF200EEE6E200EEE6E200EF4
:1002C000EE6E200EEE6E200EEE6EEF6A010E786E70
:1002D000000E006E7550005C02E174500908D8A051
:1002E000782A000E006E7550005C02E174506308BD
:1002F000D8A0782A7550030802E17450E708D8A006
:10030000782A7550270802E174500F08D8A0782A7F
:10031000ED6A7850000824E20A0E046E000E056EA5
:1003200074C000F075C001F0ABEC00F008C000F044
:1003300009C001F000C0EFFFEF50745C006E000ECA
:100340007558016E0A0E046E000E056EABEC00F0DF
:1003500000C074F001C075F0300EED267806D9D7D4
:100360001200C9EC00F0A00E746EE8EC00F06CC056
:1003700074F0E8EC00F06EC074F0E8EC00F0FBEC18
:1003800000F01200C9EC00F0A00E746EE8EC00F072
:100390006CC074F0E8EC00F0FDEC00F0A10E746E9F
:1003A000E8EC00F0746A03EC01F000C06EF0000E9F
:1003B0006F6EFBEC00F06EC000F06FC001F0120039
:1003C000956A010E7A6E1CEC00F0010E746E010E3F
:1003D000756E6CC076F06DC077F015EC01F0FF0E15
:1003E000956E1200716A6CC072F06DC073F0800E71
:1003F0006D18006E800E005C02E1000E6C5C09E27C
:10040000010E716E6C500008726E6DC073F0E86A78
:10041000735672C074F073C075F06EC076F06FC022
:1004200077F057EC01F0060E706E7050000817E27E
:1004300070506E24E16E000E6F20E26E7004006E4C
:10044000016A000E015A00506E24E96E01506F20BF
:10045000EA6EEECF00F000C0E6FF7006E6D76EC091
:10046000E1FF6FC0E2FF200EE66E715217E0706A86
:1004700070506E24E96E000E6F20EA6EEECF02F02F
:100480000250200A02E1702AF3D7700670506E24E1
:10049000E16E000E6F20E26E2D0EE66E120000017E
:1004A00000500402F4CF09F0F3CF08F00150050228
:1004B000F4CF0BF0F3CF0AF000500502F3500926F9
:1004C000F4500A22E86A0B2201500402F350092674
:1004D000F4500A22E86A0B2205AE73EF02F00050D6
:1004E0000A5C01500B5801AE7AEF02F004500A5C2E
:1004F00005500B5808C000F009C001F00AC002F016
:100500000BC003F0120007EC00F007EC00F007EC62
:1005100000F03BC000F0010E026E005004E0023615
:100520000290FF0FFBD702C01CF03CC000F0010E90
:10053000016E005004E001360190FF0FFBD701C0AF
:100540001DF03DC000F0010E076E005004E00736BC
:100550000790FF0FFBD707C01EF03EC000F0010E52
:10056000066E005004E006360690FF0FFBD706C06B
:100570001FF041C000F0010E056E005004E005368A
:100580000590FF0FFBD705C019F042C000F0010E27
:10059000046E005004E004360490FF0FFBD704C043
:1005A0001AF043C000F0010E036E005004E0033661
:1005B0000390FF0FFBD703C01BF039C015F03AC002
:1005C00016F03FC017F040C018F015C0E9FF16C084
:1005D000EAFF17C0E1FF18C0E2FF01500210006EF1
:1005E0000750001206500010026E021C006E0050F0
:1005F000EF16120E1524016E01C0E9FF02C000F0D3
:10060000001E0050EF16120E015CE96E045005103A
:10061000006E03500012001E0050E716120E172441
:10062000016E01C0E1FF0050E716120E015CE16EA1
:1006300006500710006E0050EF120350E712031C23
:10064000006E0050E71607EC00F01B50E7121B1C71
:10065000006E0050E71607EC00F01B50E7121B1C61
:10066000006E0050E71607EC00F01E50EF121F1C42
:10067000006E0050EF161B50E7121B1C006E00505E
:10068000E71607EC00F01B50E7121B1C016E01502F
:10069000E7161E1C006E0050EF161C50EF121B5088
:1006A000E7120150E71607EC00F01C1C006E00502A
:1006B000EF161F50EF121B50E7121B1C016E01506A
:1006C000E7161F1C006E0050EF161B50E71201507A
:1006D000E71607EC00F01B50E7121B1C006E0050E1
:1006E000E7161F50EF121B50E7120050E71607ECF9
:1006F00000F01F1C006E0050EF161B50E7121B1C71
:10070000016E0150E7161E501F10006E1D500012A2
:100710001C5000120050EF121B50E7120150E71658
:1007200007EC00F0010E206E1200030E3B6E000E6F
:100730003C6E050E3D6E000E3E6E070E3F6E000EC7
:10074000406E080E416E000E426E090E436E000EA2
:10075000446E070E456E000E466E0A0E476E000E82
:10076000486E0D0E496E000E4A6E030E4B6E000E63
:100770004C6E010E4D6E000E4E6E140E4F6E000E3E
:10078000506E1E0E516E000E526E396A3A6A800E1D
:100790003A18006E800E005C02E1050E395CD8B09C
:1007A0007BD039504F246C6E3A5050206D6E010E44
:1007B000046E39C000F03AC001F0045005E0003684
:1007C00000900136FF0FFAD73B0E0024E96E000EB1
:1007D0000120EA6EEECF6EF0B1EC01F0040E0C6E6B
:1007E000FF0E0B6EFF0E0A6E0C2E01D007D00B2EE3
:1007F00001D003D00A2EFED7FAD7F6D7100E0B6E13
:10080000FF0E0A6E0B2E01D003D00A2EFED7FAD7A8
:10081000260E0A6E0A2EFED70000395051246C6E47
:100820003A5052206D6E010E046E39C000F03AC08D
:1008300001F0045005E0003600900136FF0FFAD7B2
:10084000450E0024E96E000E0120EA6EEECF6EF038
:10085000B1EC01F0040E0C6EFF0E0B6EFF0E0A6E73
:100860000C2E01D007D00B2E01D003D00A2EFED7BC
:10087000FAD7F6D7100E0B6EFF0E0A6E0B2E01D0B4
:1008800003D00A2EFED7FAD7260E0A6E0A2EFED7FE
:100890000000394A3A2A7BD71200790E3B6E3D0E92
:1008A0003C6E350E3D6E2A0E3E6E280E3F6E320EA9
:1008B000406E2B0E416E540E426E5B0E436E780EF0
:1008C000446E5D0E456E2D0E466E780E476E290EF7
:1008D000486E496A560E4A6E610E4B6E6C0E4C6E37
:1008E0006F0E4D6E720E4E6E200E4F6E6E0E506E6F
:1008F000C30E516EA30E526E6F0E536E200E546EC9
:10090000640E556E650E566E660E576E690E586E05
:100910006E0E596E690E5A6E640E5B6E6F0E5C6ED3
:100920005D6A6A6A6B6AFF0E686EFF0E696E956A91
:10093000010E7A6E1CEC00F0010E746E010E756EE5
:100940003B0E766E000E776E15EC01F0800E6B1884
:10095000006E800E005C02E1050E6A5C1DE2140E62
:100960006A246C6E000E6B206D6EC2EC01F00150BB
:100970003A1802E1395000180CE11E0E6A246C6E20
:10098000000E6B206D6EC2EC01F000C068F001C07B
:1009900069F06A4A6B2ADAD7FF0E691802E1FF0E86
:1009A000681807E14A0E6C6E000E6D6EE0EC01F007
:1009B00028D0020E6824006E000E6920016E3950A6
:1009C000005E3A50015A050E046E000E056E4FECA3
:1009D00002F000C068F001C069F000C06CF001C016
:1009E0006DF05E0E6E6E000E6F6EF2EC01F0020E98
:1009F000746E010E756E5E0E766E000E776E15ECDF
:100A000001F0FF0E956E1200C79CC79E94889486D5
:100A1000380EC66E1200430E216E610E226E720EEB
:100A2000236E720E246E650E256E670E266E610EA5
:100A3000276E6E0E286E640E296E6F0E2A6E2B6A5C
:100A4000500E2C6E720E2D6E6F0E2E6E6E0E2F6E61
:100A5000740E306E6F0E316E326A336A3C0E346E35
:100A60002D0E356E2D0E366E376A060EC16E966AE5
:100A7000926AFF0E816EFF0E836EFF0E956E936A73
:100A8000140EC86E04EC05F0830E396E0F0E3A6E2C
:100A9000070E3B6E060E3C6E050E3D6E040E3E6E5E
:100AA000840E3F6E0F0E406E020E416E426A010EC2
:100AB000436E83EC02F0010E7A6E1CEC00F00C0E1B
:100AC0007A6E1CEC00F0210E6C6E000E6D6EE0EC88
:100AD00001F095EC03F02C0E6C6E000E6D6EE0ECE8
:100AE00001F00B0E0C6EFF0E0B6EFF0E0A6E0C2E3D
:100AF00001D007D00B2E01D003D00A2EFED7FAD793
:100B0000F6D7330E0B6EFF0E0A6E0B2E01D003D0FC
:100B10000A2EFED7FAD7880E0A6E0A2EFED70000DC
:100B20000000330E6C6E000E6D6EE0EC01F08190F3
:100B300083CF38F0010E3814016E0150000A07E12E
:100B4000340E6C6E000E6D6EE0EC01F026D0016A82
:100B500038B2012A0150000A07E1070E396E000E73
:100B60003A6E4DEC04F019D0016A38B4012A0150F4
:100B7000000A07E1040E396E000E3A6E4DEC04F0E7
:100B80000CD0016A38B6012A0150000A06E1010EB4
:100B9000396E000E3A6E4DEC04F0819283CF38F03E
:100BA000010E3814016E0150000A05E1396A3A6AF3
:100BB0004DEC04F026D0016A38B2012A0150000A37
:100BC00007E1080E396E000E3A6E4DEC04F019D0B4
:100BD000016A38B4012A0150000A07E1050E396E96
:100BE000000E3A6E4DEC04F00CD0016A38B6012AC2
:100BF0000150000A06E1020E396E000E3A6E4DEC0D
:100C000004F08182819483CF38F0010E3814016E94
:100C10000150000A26E0016A38B2012A0150000A98
:100C200007E1090E396E000E3A6E4DEC04F019D052
:100C3000016A38B4012A0150000A07E1060E396E34
:100C4000000E3A6E4DEC04F00CD0016A38B6012A61
:100C50000150000A06E1030E396E000E3A6E4DECAB
:100C600004F065D7FFD7FFFFFFFFFFFFFFFFFFFF88
:020000040030CA
:0E000000FFFAF6FEFFFEFBFFFFFFFFFFFFFF14
:00000001FF
