:1000000003EF04F0FFFFFFFF0000000012000F0EDF
:100010000B6EFF0E0A6E0B2E01D003D00A2EFED7F8
:10002000FAD73E0E0A6E0A2EFED700001200210EED
:100030000A6E0A2EFED7120015C0E9FF16C0EAFFAD
:1000400017C0E1FF18C0E2FF1A501910006E1B50D4
:100050000012001E0050E7161D501C10006E1E50AE
:1000600000121F500012001E0050EF165EAE02D0AC
:100070001C50EF125EAC02D01D50EF125EAA02D0EF
:100080001E50EF125EA802D01F50EF12205205E062
:10009000191C006E0050E71602D01950E7121B50D1
:1000A000E71204EC00F01B1C006E0050E7161A501B
:1000B0001910006E1B500012001E0050E7161D5054
:1000C0001C10006E1E5000121F500012001E005027
:1000D000EF165EA602D01C50EF125EA402D01D5097
:1000E000EF125EA202D01E50EF125EA002D01F508F
:1000F000EF12205205E0191C006E0050E71602D0E6
:100100001950E7121B50E71204EC00F01B1C006EA4
:100110000050E716205203E007EC00F002D017EC85
:1001200000F01200206A5DC05EF01CEC00F0010ED1
:10013000206E12000FD0800E586E19D0C00E586E6F
:1001400016D0940E586E13D0D40E586E10D0800E68
:10015000586E0DD05850010AEEE05850020AEEE0F9
:100160005850030AEEE05850040AEEE0F0D7590464
:10017000006E5850002600C058F000C05EF01CEC25
:1001800000F0206A5C6A5C505A24E96E000E5B2025
:10019000EA6EEECF00F000520CE05C505A24E96E9B
:1001A000000E5B20EA6EEECF5DF092EC00F05C2A70
:1001B000EAD7010E206E1200A69C3EC0A9FFA69EA3
:1001C000A680A8CF00F01200310E3E6E2E0E3F6EBC
:1001D000200E406E520E416E450E426E410E436E31
:1001E000440E446E200E456E320E466E2E0E476E45
:1001F000570E486E520E496E490E4A6E540E4B6EA3
:10020000450E4C6E4D6A330E4E6E2E0E4F6E200E06
:10021000506E440E516E450E526E4C0E536E450E8E
:10022000546E540E556E450E566E576A010E5E6E34
:100230001CEC00F0010E586E010E596E3E0E5A6E07
:10024000000E5B6E9AEC00F0020E586E010E596EB5
:100250004E0E5A6E000E5B6E9AEC00F01200A69CD9
:10026000A6A202D00000FCD73EC0A9FF3FC0A8FF55
:10027000A69EA684F29E550EA76EAA0EA76EA68213
:10028000F28EA694120007EC00F007EC00F007ECE9
:1002900000F023C000F0010E026E005004E00236B0
:1002A0000290FF0FFBD702C01CF024C000F0010E2B
:1002B000016E005004E001360190FF0FFBD701C032
:1002C0001DF025C000F0010E076E005004E0073657
:1002D0000790FF0FFBD707C01EF026C000F0010EED
:1002E000066E005004E006360690FF0FFBD706C0EE
:1002F0001FF029C000F0010E056E005004E0053625
:100300000590FF0FFBD705C019F02AC000F0010EC1
:10031000046E005004E004360490FF0FFBD704C0C5
:100320001AF02BC000F0010E036E005004E00336FB
:100330000390FF0FFBD703C01BF021C015F022C0B4
:1003400016F027C017F028C018F015C0E9FF16C036
:10035000EAFF17C0E1FF18C0E2FF01500210006E73
:100360000750001206500010026E021C006E005072
:10037000EF16120E1524016E01C0E9FF02C000F055
:10038000001E0050EF16120E015CE96E04500510BD
:10039000006E03500012001E0050E716120E1724C4
:1003A000016E01C0E1FF0050E716120E015CE16E24
:1003B00006500710006E0050EF120350E712031CA6
:1003C000006E0050E71607EC00F01B50E7121B1CF4
:1003D000006E0050E71607EC00F01B50E7121B1CE4
:1003E000006E0050E71607EC00F01E50EF121F1CC5
:1003F000006E0050EF161B50E7121B1C006E0050E1
:10040000E71607EC00F01B50E7121B1C016E0150B1
:10041000E7161E1C006E0050EF161C50EF121B500A
:10042000E7120150E71607EC00F01C1C006E0050AC
:10043000EF161F50EF121B50E7121B1C016E0150EC
:10044000E7161F1C006E0050EF161B50E7120150FC
:10045000E71607EC00F01B50E7121B1C006E005063
:10046000E7161F50EF121B50E7120050E71607EC7B
:1004700000F01F1C006E0050EF161B50E7121B1CF3
:10048000016E0150E7161E501F10006E1D50001225
:100490001C5000120050EF121B50E7120150E716DB
:1004A00007EC00F0010E206E1200520E216E450E78
:1004B000226E410E236E440E246E490E256E4E0EA2
:1004C000266E470E276E200E286E450E296E450EAD
:1004D0002A6E500E2B6E520E2C6E4F0E2D6E4D0E40
:1004E0002E6E2F6A010E5E6E1CEC00F0010E586E2F
:1004F000010E596E210E5A6E000E5B6E9AEC00F0E2
:100500000B0E0C6EFF0E0B6EFF0E0A6E0C2E01D042
:1005100007D00B2E01D003D00A2EFED7FAD7F6D77C
:10052000330E0B6EFF0E0A6E0B2E01D003D00A2E77
:10053000FED7FAD7880E0A6E0A2EFED700000000FA
:10054000010E5E6E1CEC00F0690E3E6EDCEC00F0FD
:1005500000C05AF0000E5B6E010E586E010E596E0F
:100560009AEC00F0150E0C6EFF0E0B6EFF0E0A6E6D
:100570000C2E01D007D00B2E01D003D00A2EFED7AF
:10058000FAD7F6D7660E0B6EFF0E0A6E0B2E01D051
:1005900003D00A2EFED7FAD7130E0A6E0A2EFED704
:1005A000E4EC00F01200570E216E520E226E490E3E
:1005B000236E540E246E490E256E4E0E266E470E87
:1005C000276E200E286E450E296E450E2A6E500E9F
:1005D0002B6E520E2C6E4F0E2D6E4D0E2E6E2F6A00
:1005E000410E306E4C0E316E470E326E4F0E336E32
:1005F000346A570E356E520E366E4F0E376E540EED
:10060000386E450E396E3A6A010E5E6E1CEC00F0D3
:10061000010E586E010E596E210E5A6E000E5B6E61
:100620009AEC00F0690E3E6E300E3F6E2FEC01F03A
:100630000B0E0C6EFF0E0B6EFF0E0A6E0C2E01D011
:1006400007D00B2E01D003D00A2EFED7FAD7F6D74B
:10065000330E0B6EFF0E0A6E0B2E01D003D00A2E46
:10066000FED7FAD7880E0A6E0A2EFED700000000C9
:10067000010E5E6E1CEC00F0010E586E010E596EFC
:10068000350E5A6E000E5B6E9AEC00F00B0E0C6E7F
:10069000FF0E0B6EFF0E0A6E0C2E01D007D00B2E34
:1006A00001D003D00A2EFED7FAD7F6D7330E0B6E41
:1006B000FF0E0A6E0B2E01D003D00A2EFED7FAD7FA
:1006C000880E0A6E0A2EFED700000000E4EC00F04F
:1006D0001200440E216E450E226E4C0E236E450E06
:1006E000246E540E256E490E266E4E0E276E470E52
:1006F000286E200E296E450E2A6E450E2B6E500E6A
:100700002C6E520E2D6E4F0E2E6E4D0E2F6E306AC9
:10071000560E316E4F0E326E490E336E440E346EED
:10072000356A440E366E450E376E4C0E386E450EE9
:10073000396E540E3A6E450E3B6E440E3C6E3D6A69
:10074000010E5E6E1CEC00F0010E586E010E596E2B
:10075000210E5A6E000E5B6E9AEC00F0690E3E6E32
:10076000310E3F6E2FEC01F00B0E0C6EFF0E0B6E78
:10077000FF0E0A6E0C2E01D007D00B2E01D003D035
:100780000A2EFED7FAD7F6D7330E0B6EFF0E0A6E7F
:100790000B2E01D003D00A2EFED7FAD7880E0A6E90
:1007A0000A2EFED700000000010E5E6E1CEC00F069
:1007B000010E586E010E596E360E5A6E000E5B6EAB
:1007C0009AEC00F0150E0C6EFF0E0B6EFF0E0A6E0B
:1007D0000C2E01D007D00B2E01D003D00A2EFED74D
:1007E000FAD7F6D7660E0B6EFF0E0A6E0B2E01D0EF
:1007F00003D00A2EFED7FAD7130E0A6E0A2EFED7A2
:10080000E4EC00F01200060EC16E966A956A010EC5
:10081000816E830E216E0F0E226E070E236E060E62
:10082000246E050E256E040E266E840E276E0F0EA6
:10083000286E020E296E2A6A010E2B6E43EC01F01F
:10084000010E5E6E1CEC00F00C0E5E6E1CEC00F0F7
:10085000E4EC00F0010E8114016E0150000A02E187
:1008600055EC02F0016A81B2012A0150000A02E14E
:10087000D3EC02F0016A81B4012A0150000A02E1BE
:1008800069EC03F0E7D7FFD7FFFFFFFFFFFFFFFF94
:020000040030CA
:0E000000FFFAF6FEFFFEFBFFFFFFFFFFFFFF14
:00000001FF
