:1000000042EF00F0FFFFFFFF1ED03F0E006E120018
:10001000060E006E12005B0E006E12004F0E006E98
:100020001200660E006E12006D0E006E12007D0E44
:10003000006E1200070E006E12007F0E006E12009E
:100040006F0E006E12001750000ADFE01750010A11
:10005000DFE01750020ADFE01750030ADFE0175015
:10006000040ADFE01750050ADFE01750060ADFE058
:100070001750070ADFE01750080ADFE01750090A97
:10008000DFE01200956A926A806A836AF26A156AF2
:10009000166A156A166A000E165C02E10E0E155CF1
:1000A000D8B0BDD0000E165C02E1090E155C27E247
:1000B0008088176A04EC00F000C083FF020E0C6E0B
:1000C000FF0E0B6EFF0E0A6E0C2E01D007D00B2E0A
:1000D00001D003D00A2EFED7FAD7F6D7060E0B6E44
:1000E000FF0E0A6E0B2E01D003D00A2EFED7FAD7D0
:1000F0000A0E0A6E0A2EFED70000809827D080884C
:10010000010E176E04EC00F000C083FF020E0C6EAF
:10011000FF0E0B6EFF0E0A6E0C2E01D007D00B2EB9
:1001200001D003D00A2EFED7FAD7F6D7060E0B6EF3
:10013000FF0E0A6E0B2E01D003D00A2EFED7FAD77F
:100140000A0E0A6E0A2EFED700008098000E165C7A
:1001500002E1090E155C29E2808A1550010F176E25
:1001600004EC00F000C083FF020E0C6EFF0E0B6E5D
:10017000FF0E0A6E0C2E01D007D00B2E01D003D03B
:100180000A2EFED7FAD7F6D7060E0B6EFF0E0A6EB2
:100190000B2E01D003D00A2EFED7FAD70A0E0A6E14
:1001A0000A2EFED70000809A28D0808A080E155C9F
:1001B000176E04EC00F000C083FF020E0C6EFF0E01
:1001C0000B6EFF0E0A6E0C2E01D007D00B2E01D045
:1001D00003D00A2EFED7FAD7F6D7060E0B6EFF0E07
:1001E0000A6E0B2E01D003D00A2EFED7FAD70A0EC4
:1001F0000A6E0A2EFED70000809A030E0B6EFF0EC9
:100200000A6E0B2E01D003D00A2EFED7FAD7960E17
:100210000A6E0A2EFED70000154A162A3CD737D799
:10022000FFD7FFFFFFFFFFFFFFFFFFFFFFFFFFFF06
:020000040030CA
:0E000000FFFAF6FEFFFEFBFFFFFFFFFFFFFF14
:00000001FF
