:1000000071EF01F0FFFFFFFF0000000012000F0E74
:100010000B6EFF0E0A6E0B2E01D003D00A2EFED7F8
:10002000FAD73E0E0A6E0A2EFED700001200210EED
:100030000A6E0A2EFED7120015C0E9FF16C0EAFFAD
:1000400017C0E1FF18C0E2FFEF6A345200E034BE8F
:10005000EF8E34BCEF8C34BAEF8A34B8EF8834B604
:10006000EF8634B4EF8434B2EF8234B0EF801950AD
:10007000010A03E1E7943EEF00F0E784E78204EC35
:1000800000F0E7921950010A03E107EC00F002D0FA
:1000900017EC00F012000001086A096A100E0C6EDD
:1000A0000134083609360450085E0550D8A0053CD6
:1000B000095ED8B063EF00F0045008260550D8B0B0
:1000C000053C0926D890003601360C2E50EF00F082
:1000D00012000FD0800E2F6E19D0C00E2F6E16D0CA
:1000E000940E2F6E13D0D40E2F6E10D0800E2F6E64
:1000F0000DD02F50010AEEE02F50020AEEE02F50F3
:10010000030AEEE02F50040AEEE0F0D73004006E50
:100110002F50002600C02FF0010E196E00C034F0E1
:100120001CEC00F0196A336A33503124E96E000E7A
:100130003220EA6EEECF00F000520CE03350312452
:10014000E96E000E3220EA6EEECF34F01CEC00F0C7
:10015000332AEAD7010E196E120031C0E9FF32C00E
:10016000EAFF200EEE6E200EEE6E200EEE6E200EDA
:10017000EE6E200EEE6EEF6A010E336E000E006E14
:100180003050005C02E12F500908D8A0332A000E3D
:10019000006E3050005C02E12F506308D8A0332A73
:1001A0003050030802E12F50E708D8A0332A30501E
:1001B000270802E12F500F08D8A0332AED6A3350E8
:1001C000000824E20A0E046E000E056E2FC000F037
:1001D00030C001F04BEC00F008C000F009C001F0A5
:1001E00000C0EFFFEF502F5C006E000E3058016E24
:1001F0000A0E046E000E056E4BEC00F000C02FF0EE
:1002000001C030F0300EED263306D9D71200A69C7F
:10021000A6A202D00000FCD72FC0A9FF30C0A8FFC3
:10022000A69EA684F29E550EA76EAA0EA76EA68263
:10023000F28EA6941200A69C2FC0A9FFA69EA680AF
:10024000A8CF00F0120007EC00F007EC00F007EC7C
:1002500000F031C015F032C016F02FC017F030C0DA
:1002600018F02FC0E9FF30C0EAFFEF9031C0E1FF86
:1002700032C0E2FFE66A110EE124006E00C0E1FF29
:10028000E76A120E005CE16E120EE926EF92EF941F
:10029000EF90120EE95EEF94EF92EF90300E346E15
:1002A0001CEC00F0300E346E1CEC00F0300E346E9E
:1002B0001CEC00F0380E346E1CEC00F0080E346EAE
:1002C0001CEC00F0010E346E1CEC00F0060E346ED7
:1002D0001CEC00F00C0E346E1CEC00F0010E196EDC
:1002E0001200590E1A6E200E1B6E3D0E1C6E200E53
:1002F0001D6E580E1E6E5E0E1F6E320E206E216A2F
:100300007C0E226E236A246A956A966A060EC16E76
:1003100093809382840E2F6E0F0E306E830E316E9B
:100320000F0E326E23EC01F0010E346E1CEC00F067
:100330000C0E346E1CEC00F0010E2F6E010E306EB0
:100340001A0E316E000E326E69EC00F0010E246E52
:10035000080E245C26E224C02FF0000E306E250E1D
:10036000316E000E326EADEC00F02450200F2F6E77
:10037000250E306E07EC01F024502402F3CF2FF04D
:10038000F4CF30F0250E316E000E326EADEC00F081
:100390002450500F2F6E250E306E07EC01F0242AEA
:1003A000D7D7010E246E080E245C49E22450200F9A
:1003B0002F6E1BEC01F000C031F0000E326E020E09
:1003C0002F6E306A69EC00F0020E2F6E060E306E52
:1003D000220E316E000E326E69EC00F02450500F88
:1003E0002F6E1BEC01F000C031F0000E326E020ED9
:1003F0002F6E070E306E69EC00F00B0E0C6EFF0EC8
:100400000B6EFF0E0A6E0C2E01D007D00B2E01D002
:1004100003D00A2EFED7FAD7F6D7330E0B6EFF0E97
:100420000A6E0B2E01D003D00A2EFED7FAD7880E03
:100430000A6E0A2EFED700000000242AB4D786D701
:10044000FFD7FFFFFFFFFFFFFFFFFFFFFFFFFFFFE4
:020000040030CA
:0E000000FFFAF6FEFFFEFBFFFFFFFFFFFFFF14
:00000001FF
